{
  "contractName": "CrowdFunding",
  "abi": [
    {
      "inputs": [],
      "stateMutability": "nonpayable",
      "type": "constructor"
    },
    {
      "inputs": [
        {
          "internalType": "string",
          "name": "",
          "type": "string"
        }
      ],
      "name": "mp",
      "outputs": [
        {
          "internalType": "string",
          "name": "cause",
          "type": "string"
        },
        {
          "internalType": "uint256",
          "name": "money",
          "type": "uint256"
        },
        {
          "internalType": "uint256",
          "name": "target",
          "type": "uint256"
        },
        {
          "internalType": "address",
          "name": "person",
          "type": "address"
        },
        {
          "internalType": "bool",
          "name": "ok",
          "type": "bool"
        }
      ],
      "stateMutability": "view",
      "type": "function",
      "constant": true
    },
    {
      "inputs": [],
      "name": "owner",
      "outputs": [
        {
          "internalType": "address",
          "name": "",
          "type": "address"
        }
      ],
      "stateMutability": "view",
      "type": "function",
      "constant": true
    },
    {
      "inputs": [
        {
          "internalType": "string",
          "name": "cause",
          "type": "string"
        },
        {
          "internalType": "address",
          "name": "dead",
          "type": "address"
        },
        {
          "internalType": "uint256",
          "name": "target",
          "type": "uint256"
        }
      ],
      "name": "createCause",
      "outputs": [],
      "stateMutability": "nonpayable",
      "type": "function"
    },
    {
      "inputs": [
        {
          "internalType": "string",
          "name": "_cause",
          "type": "string"
        },
        {
          "internalType": "uint256",
          "name": "_money",
          "type": "uint256"
        }
      ],
      "name": "getMoney",
      "outputs": [],
      "stateMutability": "payable",
      "type": "function",
      "payable": true
    },
    {
      "inputs": [
        {
          "internalType": "string",
          "name": "_cause",
          "type": "string"
        }
      ],
      "name": "distributeMoney",
      "outputs": [],
      "stateMutability": "payable",
      "type": "function",
      "payable": true
    }
  ],
  "bytecode": "0x608060405234801561001057600080fd5b5033600160006101000a81548173ffffffffffffffffffffffffffffffffffffffff021916908373ffffffffffffffffffffffffffffffffffffffff160217905550610eb7806100616000396000f3fe60806040526004361061004a5760003560e01c8063268d6bc01461004f57806334bbe17a1461006b5780638da5cb5b146100875780639bdfcf2d146100b2578063cc6b71e0146100db575b600080fd5b6100696004803603810190610064919061095f565b61011c565b005b610085600480360381019061008091906109de565b610228565b005b34801561009357600080fd5b5061009c610459565b6040516100a99190610a7b565b60405180910390f35b3480156100be57600080fd5b506100d960048036038101906100d49190610ac2565b61047f565b005b3480156100e757600080fd5b5061010260048036038101906100fd919061095f565b61061a565b604051610113959493929190610be3565b60405180910390f35b60008160405161012c9190610c79565b908152602001604051809103902060030160009054906101000a900473ffffffffffffffffffffffffffffffffffffffff1673ffffffffffffffffffffffffffffffffffffffff166108fc6000836040516101879190610c79565b9081526020016040518091039020600201549081150290604051600060405180830381858888f193505050501580156101c4573d6000803e3d6000fd5b5060016000826040516101d79190610c79565b908152602001604051809103902060030160146101000a81548160ff021916908315150217905550600080826040516102109190610c79565b90815260200160405180910390206001018190555050565b80341461026a576040517f08c379a000000000000000000000000000000000000000000000000000000000815260040161026190610cdc565b60405180910390fd5b60008260405161027a9190610c79565b9081526020016040518091039020600201548160008460405161029d9190610c79565b9081526020016040518091039020600101546102b99190610d2b565b11156103af57600080836040516102d09190610c79565b908152602001604051809103902060020154826000856040516102f39190610c79565b90815260200160405180910390206001015461030f9190610d2b565b6103199190610d81565b90503373ffffffffffffffffffffffffffffffffffffffff166108fc829081150290604051600060405180830381858888f19350505050158015610361573d6000803e3d6000fd5b506000836040516103729190610c79565b9081526020016040518091039020600201546000846040516103949190610c79565b90815260200160405180910390206001018190555050610402565b806000836040516103c09190610c79565b9081526020016040518091039020600101546103dc9190610d2b565b6000836040516103ec9190610c79565b9081526020016040518091039020600101819055505b6000826040516104129190610c79565b9081526020016040518091039020600201546000836040516104349190610c79565b90815260200160405180910390206001015403610455576104548261011c565b5b5050565b600160009054906101000a900473ffffffffffffffffffffffffffffffffffffffff1681565b600160009054906101000a900473ffffffffffffffffffffffffffffffffffffffff1673ffffffffffffffffffffffffffffffffffffffff163373ffffffffffffffffffffffffffffffffffffffff161461050f576040517f08c379a000000000000000000000000000000000000000000000000000000000815260040161050690610e01565b60405180910390fd5b61051761071b565b6040518060a00160405280858152602001600081526020018381526020018473ffffffffffffffffffffffffffffffffffffffff1681526020016000151581525090508060008560405161056b9190610c79565b90815260200160405180910390206000820151816000019080519060200190610595929190610762565b50602082015181600101556040820151816002015560608201518160030160006101000a81548173ffffffffffffffffffffffffffffffffffffffff021916908373ffffffffffffffffffffffffffffffffffffffff16021790555060808201518160030160146101000a81548160ff02191690831515021790555090505050505050565b60008180516020810182018051848252602083016020850120818352809550505050505060009150905080600001805461065390610e50565b80601f016020809104026020016040519081016040528092919081815260200182805461067f90610e50565b80156106cc5780601f106106a1576101008083540402835291602001916106cc565b820191906000526020600020905b8154815290600101906020018083116106af57829003601f168201915b5050505050908060010154908060020154908060030160009054906101000a900473ffffffffffffffffffffffffffffffffffffffff16908060030160149054906101000a900460ff16905085565b6040518060a00160405280606081526020016000815260200160008152602001600073ffffffffffffffffffffffffffffffffffffffff1681526020016000151581525090565b82805461076e90610e50565b90600052602060002090601f01602090048101928261079057600085556107d7565b82601f106107a957805160ff19168380011785556107d7565b828001600101855582156107d7579182015b828111156107d65782518255916020019190600101906107bb565b5b5090506107e491906107e8565b5090565b5b808211156108015760008160009055506001016107e9565b5090565b6000604051905090565b600080fd5b600080fd5b600080fd5b600080fd5b6000601f19601f8301169050919050565b7f4e487b7100000000000000000000000000000000000000000000000000000000600052604160045260246000fd5b61086c82610823565b810181811067ffffffffffffffff8211171561088b5761088a610834565b5b80604052505050565b600061089e610805565b90506108aa8282610863565b919050565b600067ffffffffffffffff8211156108ca576108c9610834565b5b6108d382610823565b9050602081019050919050565b82818337600083830152505050565b60006109026108fd846108af565b610894565b90508281526020810184848401111561091e5761091d61081e565b5b6109298482856108e0565b509392505050565b600082601f83011261094657610945610819565b5b81356109568482602086016108ef565b91505092915050565b6000602082840312156109755761097461080f565b5b600082013567ffffffffffffffff81111561099357610992610814565b5b61099f84828501610931565b91505092915050565b6000819050919050565b6109bb816109a8565b81146109c657600080fd5b50565b6000813590506109d8816109b2565b92915050565b600080604083850312156109f5576109f461080f565b5b600083013567ffffffffffffffff811115610a1357610a12610814565b5b610a1f85828601610931565b9250506020610a30858286016109c9565b9150509250929050565b600073ffffffffffffffffffffffffffffffffffffffff82169050919050565b6000610a6582610a3a565b9050919050565b610a7581610a5a565b82525050565b6000602082019050610a906000830184610a6c565b92915050565b610a9f81610a5a565b8114610aaa57600080fd5b50565b600081359050610abc81610a96565b92915050565b600080600060608486031215610adb57610ada61080f565b5b600084013567ffffffffffffffff811115610af957610af8610814565b5b610b0586828701610931565b9350506020610b1686828701610aad565b9250506040610b27868287016109c9565b9150509250925092565b600081519050919050565b600082825260208201905092915050565b60005b83811015610b6b578082015181840152602081019050610b50565b83811115610b7a576000848401525b50505050565b6000610b8b82610b31565b610b958185610b3c565b9350610ba5818560208601610b4d565b610bae81610823565b840191505092915050565b610bc2816109a8565b82525050565b60008115159050919050565b610bdd81610bc8565b82525050565b600060a0820190508181036000830152610bfd8188610b80565b9050610c0c6020830187610bb9565b610c196040830186610bb9565b610c266060830185610a6c565b610c336080830184610bd4565b9695505050505050565b600081905092915050565b6000610c5382610b31565b610c5d8185610c3d565b9350610c6d818560208601610b4d565b80840191505092915050565b6000610c858284610c48565b915081905092915050565b7f53656e6420746865206d656e74696f6e656420616d6f756e74206f6e6c790000600082015250565b6000610cc6601e83610b3c565b9150610cd182610c90565b602082019050919050565b60006020820190508181036000830152610cf581610cb9565b9050919050565b7f4e487b7100000000000000000000000000000000000000000000000000000000600052601160045260246000fd5b6000610d36826109a8565b9150610d41836109a8565b9250827fffffffffffffffffffffffffffffffffffffffffffffffffffffffffffffffff03821115610d7657610d75610cfc565b5b828201905092915050565b6000610d8c826109a8565b9150610d97836109a8565b925082821015610daa57610da9610cfc565b5b828203905092915050565b7f596f75206964696f7420617265206e6f7420746865206f776e65720000000000600082015250565b6000610deb601b83610b3c565b9150610df682610db5565b602082019050919050565b60006020820190508181036000830152610e1a81610dde565b9050919050565b7f4e487b7100000000000000000000000000000000000000000000000000000000600052602260045260246000fd5b60006002820490506001821680610e6857607f821691505b602082108103610e7b57610e7a610e21565b5b5091905056fea264697066735822122019fb5b1ba6d58240d018bdae0224a3444c328c290451205465292e226d4a7d6764736f6c634300080d0033",
  "immutableReferences": {},
  "source": "// SPDX-License-Identifier: MIT\r\n// compiler version must be greater than or equal to 0.8.20 and less than 0.9.0\r\npragma solidity >=0.4.22 <0.9.0;\r\n\r\ncontract CrowdFunding {\r\n    struct Cause {\r\n        string cause;\r\n        uint256 money;\r\n        uint256 target;\r\n        address person;\r\n        bool ok;\r\n    }\r\n\r\n    mapping(string => Cause) public mp;\r\n\r\n    address public owner;\r\n\r\n    constructor() {\r\n        owner = msg.sender;\r\n    }\r\n\r\n    function createCause(\r\n        string memory cause,\r\n        address dead,\r\n        uint256 target\r\n    ) public {\r\n        require(msg.sender == owner, \"You idiot are not the owner\");\r\n\r\n        Cause memory obj;\r\n\r\n        obj = Cause(cause, 0, target, dead, false);\r\n\r\n        mp[cause] = obj;\r\n    }\r\n\r\n    function getMoney(string memory _cause, uint256 _money) public payable {\r\n        // uint256 a = mp[_cause].target;\r\n        require(msg.value == _money, \"Send the mentioned amount only\");\r\n        if (mp[_cause].money + _money > mp[_cause].target) {\r\n            uint256 b = mp[_cause].money + _money - mp[_cause].target;\r\n            payable(msg.sender).transfer(b);\r\n            mp[_cause].money = mp[_cause].target;\r\n        } else mp[_cause].money = mp[_cause].money + _money;\r\n\r\n        if (mp[_cause].money == mp[_cause].target) distributeMoney(_cause);\r\n    }\r\n\r\n    function distributeMoney(string memory _cause) public payable {\r\n        payable(mp[_cause].person).transfer(mp[_cause].target);\r\n        mp[_cause].ok = true;\r\n        mp[_cause].money = 0;\r\n    }\r\n}\r\n",
  "sourcePath": "C:\\Users\\goura\\OneDrive\\Desktop\\blockchain\\crowdfunding\\truffle\\contracts\\CrowdFunding.sol",
  "compiler": {
    "name": "solc",
    "version": "0.8.13+commit.abaa5c0e.Emscripten.clang"
  },
  "schemaVersion": "3.4.5",
  "updatedAt": "2023-10-20T14:50:19.918Z",
  "networkType": "ethereum",
  "devdoc": {
    "kind": "dev",
    "methods": {},
    "version": 1
  },
  "userdoc": {
    "kind": "user",
    "methods": {},
    "version": 1
  }
}