{
  "contractName": "CrowdFunding",
  "abi": [
    {
      "inputs": [],
      "stateMutability": "nonpayable",
      "type": "constructor"
    },
    {
      "inputs": [
        {
          "internalType": "uint256",
          "name": "",
          "type": "uint256"
        }
      ],
      "name": "causes",
      "outputs": [
        {
          "internalType": "string",
          "name": "",
          "type": "string"
        }
      ],
      "stateMutability": "view",
      "type": "function",
      "constant": true
    },
    {
      "inputs": [
        {
          "internalType": "string",
          "name": "",
          "type": "string"
        }
      ],
      "name": "mp",
      "outputs": [
        {
          "internalType": "string",
          "name": "cause",
          "type": "string"
        },
        {
          "internalType": "uint256",
          "name": "money",
          "type": "uint256"
        },
        {
          "internalType": "uint256",
          "name": "target",
          "type": "uint256"
        },
        {
          "internalType": "address",
          "name": "person",
          "type": "address"
        },
        {
          "internalType": "bool",
          "name": "ok",
          "type": "bool"
        }
      ],
      "stateMutability": "view",
      "type": "function",
      "constant": true
    },
    {
      "inputs": [],
      "name": "owner",
      "outputs": [
        {
          "internalType": "address",
          "name": "",
          "type": "address"
        }
      ],
      "stateMutability": "view",
      "type": "function",
      "constant": true
    },
    {
      "inputs": [
        {
          "internalType": "string",
          "name": "cause",
          "type": "string"
        },
        {
          "internalType": "address",
          "name": "dead",
          "type": "address"
        },
        {
          "internalType": "uint256",
          "name": "target",
          "type": "uint256"
        }
      ],
      "name": "createCause",
      "outputs": [],
      "stateMutability": "nonpayable",
      "type": "function"
    },
    {
      "inputs": [
        {
          "internalType": "string",
          "name": "_cause",
          "type": "string"
        },
        {
          "internalType": "uint256",
          "name": "_money",
          "type": "uint256"
        }
      ],
      "name": "getMoney",
      "outputs": [],
      "stateMutability": "payable",
      "type": "function",
      "payable": true
    },
    {
      "inputs": [
        {
          "internalType": "string",
          "name": "_cause",
          "type": "string"
        }
      ],
      "name": "distributeMoney",
      "outputs": [],
      "stateMutability": "payable",
      "type": "function",
      "payable": true
    },
    {
      "inputs": [],
      "name": "returnCauseNames",
      "outputs": [
        {
          "internalType": "string[]",
          "name": "",
          "type": "string[]"
        }
      ],
      "stateMutability": "view",
      "type": "function",
      "constant": true
    }
  ],
  "bytecode": "0x608060405234801561001057600080fd5b5033600260006101000a81548173ffffffffffffffffffffffffffffffffffffffff021916908373ffffffffffffffffffffffffffffffffffffffff16021790555061125d806100616000396000f3fe6080604052600436106100705760003560e01c80638da5cb5b1161004e5780638da5cb5b146100ea5780639bdfcf2d14610115578063af5a3d191461013e578063cc6b71e01461016957610070565b8063268d6bc01461007557806334bbe17a14610091578063538a942a146100ad575b600080fd5b61008f600480360381019061008a9190610b88565b6101aa565b005b6100ab60048036038101906100a69190610c07565b610290565b005b3480156100b957600080fd5b506100d460048036038101906100cf9190610c63565b6104c1565b6040516100e19190610d18565b60405180910390f35b3480156100f657600080fd5b506100ff61056d565b60405161010c9190610d7b565b60405180910390f35b34801561012157600080fd5b5061013c60048036038101906101379190610dc2565b610593565b005b34801561014a57600080fd5b5061015361076a565b6040516101609190610f3d565b60405180910390f35b34801561017557600080fd5b50610190600480360381019061018b9190610b88565b610843565b6040516101a1959493929190610f89565b60405180910390f35b6000816040516101ba919061101f565b908152602001604051809103902060030160009054906101000a900473ffffffffffffffffffffffffffffffffffffffff1673ffffffffffffffffffffffffffffffffffffffff166108fc600083604051610215919061101f565b9081526020016040518091039020600201549081150290604051600060405180830381858888f19350505050158015610252573d6000803e3d6000fd5b506001600082604051610265919061101f565b908152602001604051809103902060030160146101000a81548160ff02191690831515021790555050565b8034146102d2576040517f08c379a00000000000000000000000000000000000000000000000000000000081526004016102c990611082565b60405180910390fd5b6000826040516102e2919061101f565b90815260200160405180910390206002015481600084604051610305919061101f565b90815260200160405180910390206001015461032191906110d1565b11156104175760008083604051610338919061101f565b9081526020016040518091039020600201548260008560405161035b919061101f565b90815260200160405180910390206001015461037791906110d1565b6103819190611127565b90503373ffffffffffffffffffffffffffffffffffffffff166108fc829081150290604051600060405180830381858888f193505050501580156103c9573d6000803e3d6000fd5b506000836040516103da919061101f565b9081526020016040518091039020600201546000846040516103fc919061101f565b9081526020016040518091039020600101819055505061046a565b80600083604051610428919061101f565b90815260200160405180910390206001015461044491906110d1565b600083604051610454919061101f565b9081526020016040518091039020600101819055505b60008260405161047a919061101f565b90815260200160405180910390206002015460008360405161049c919061101f565b908152602001604051809103902060010154036104bd576104bc826101aa565b5b5050565b600181815481106104d157600080fd5b9060005260206000200160009150905080546104ec9061118a565b80601f01602080910402602001604051908101604052809291908181526020018280546105189061118a565b80156105655780601f1061053a57610100808354040283529160200191610565565b820191906000526020600020905b81548152906001019060200180831161054857829003601f168201915b505050505081565b600260009054906101000a900473ffffffffffffffffffffffffffffffffffffffff1681565b600260009054906101000a900473ffffffffffffffffffffffffffffffffffffffff1673ffffffffffffffffffffffffffffffffffffffff163373ffffffffffffffffffffffffffffffffffffffff1614610623576040517f08c379a000000000000000000000000000000000000000000000000000000000815260040161061a90611207565b60405180910390fd5b61062b610944565b6040518060a00160405280858152602001600081526020018381526020018473ffffffffffffffffffffffffffffffffffffffff1681526020016000151581525090506001849080600181540180825580915050600190039060005260206000200160009091909190915090805190602001906106a992919061098b565b50806000856040516106bb919061101f565b908152602001604051809103902060008201518160000190805190602001906106e592919061098b565b50602082015181600101556040820151816002015560608201518160030160006101000a81548173ffffffffffffffffffffffffffffffffffffffff021916908373ffffffffffffffffffffffffffffffffffffffff16021790555060808201518160030160146101000a81548160ff02191690831515021790555090505050505050565b60606001805480602002602001604051908101604052809291908181526020016000905b8282101561083a5783829060005260206000200180546107ad9061118a565b80601f01602080910402602001604051908101604052809291908181526020018280546107d99061118a565b80156108265780601f106107fb57610100808354040283529160200191610826565b820191906000526020600020905b81548152906001019060200180831161080957829003601f168201915b50505050508152602001906001019061078e565b50505050905090565b60008180516020810182018051848252602083016020850120818352809550505050505060009150905080600001805461087c9061118a565b80601f01602080910402602001604051908101604052809291908181526020018280546108a89061118a565b80156108f55780601f106108ca576101008083540402835291602001916108f5565b820191906000526020600020905b8154815290600101906020018083116108d857829003601f168201915b5050505050908060010154908060020154908060030160009054906101000a900473ffffffffffffffffffffffffffffffffffffffff16908060030160149054906101000a900460ff16905085565b6040518060a00160405280606081526020016000815260200160008152602001600073ffffffffffffffffffffffffffffffffffffffff1681526020016000151581525090565b8280546109979061118a565b90600052602060002090601f0160209004810192826109b95760008555610a00565b82601f106109d257805160ff1916838001178555610a00565b82800160010185558215610a00579182015b828111156109ff5782518255916020019190600101906109e4565b5b509050610a0d9190610a11565b5090565b5b80821115610a2a576000816000905550600101610a12565b5090565b6000604051905090565b600080fd5b600080fd5b600080fd5b600080fd5b6000601f19601f8301169050919050565b7f4e487b7100000000000000000000000000000000000000000000000000000000600052604160045260246000fd5b610a9582610a4c565b810181811067ffffffffffffffff82111715610ab457610ab3610a5d565b5b80604052505050565b6000610ac7610a2e565b9050610ad38282610a8c565b919050565b600067ffffffffffffffff821115610af357610af2610a5d565b5b610afc82610a4c565b9050602081019050919050565b82818337600083830152505050565b6000610b2b610b2684610ad8565b610abd565b905082815260208101848484011115610b4757610b46610a47565b5b610b52848285610b09565b509392505050565b600082601f830112610b6f57610b6e610a42565b5b8135610b7f848260208601610b18565b91505092915050565b600060208284031215610b9e57610b9d610a38565b5b600082013567ffffffffffffffff811115610bbc57610bbb610a3d565b5b610bc884828501610b5a565b91505092915050565b6000819050919050565b610be481610bd1565b8114610bef57600080fd5b50565b600081359050610c0181610bdb565b92915050565b60008060408385031215610c1e57610c1d610a38565b5b600083013567ffffffffffffffff811115610c3c57610c3b610a3d565b5b610c4885828601610b5a565b9250506020610c5985828601610bf2565b9150509250929050565b600060208284031215610c7957610c78610a38565b5b6000610c8784828501610bf2565b91505092915050565b600081519050919050565b600082825260208201905092915050565b60005b83811015610cca578082015181840152602081019050610caf565b83811115610cd9576000848401525b50505050565b6000610cea82610c90565b610cf48185610c9b565b9350610d04818560208601610cac565b610d0d81610a4c565b840191505092915050565b60006020820190508181036000830152610d328184610cdf565b905092915050565b600073ffffffffffffffffffffffffffffffffffffffff82169050919050565b6000610d6582610d3a565b9050919050565b610d7581610d5a565b82525050565b6000602082019050610d906000830184610d6c565b92915050565b610d9f81610d5a565b8114610daa57600080fd5b50565b600081359050610dbc81610d96565b92915050565b600080600060608486031215610ddb57610dda610a38565b5b600084013567ffffffffffffffff811115610df957610df8610a3d565b5b610e0586828701610b5a565b9350506020610e1686828701610dad565b9250506040610e2786828701610bf2565b9150509250925092565b600081519050919050565b600082825260208201905092915050565b6000819050602082019050919050565b600082825260208201905092915050565b6000610e7982610c90565b610e838185610e5d565b9350610e93818560208601610cac565b610e9c81610a4c565b840191505092915050565b6000610eb38383610e6e565b905092915050565b6000602082019050919050565b6000610ed382610e31565b610edd8185610e3c565b935083602082028501610eef85610e4d565b8060005b85811015610f2b5784840389528151610f0c8582610ea7565b9450610f1783610ebb565b925060208a01995050600181019050610ef3565b50829750879550505050505092915050565b60006020820190508181036000830152610f578184610ec8565b905092915050565b610f6881610bd1565b82525050565b60008115159050919050565b610f8381610f6e565b82525050565b600060a0820190508181036000830152610fa38188610cdf565b9050610fb26020830187610f5f565b610fbf6040830186610f5f565b610fcc6060830185610d6c565b610fd96080830184610f7a565b9695505050505050565b600081905092915050565b6000610ff982610c90565b6110038185610fe3565b9350611013818560208601610cac565b80840191505092915050565b600061102b8284610fee565b915081905092915050565b7f53656e6420746865206d656e74696f6e656420616d6f756e74206f6e6c790000600082015250565b600061106c601e83610c9b565b915061107782611036565b602082019050919050565b6000602082019050818103600083015261109b8161105f565b9050919050565b7f4e487b7100000000000000000000000000000000000000000000000000000000600052601160045260246000fd5b60006110dc82610bd1565b91506110e783610bd1565b9250827fffffffffffffffffffffffffffffffffffffffffffffffffffffffffffffffff0382111561111c5761111b6110a2565b5b828201905092915050565b600061113282610bd1565b915061113d83610bd1565b9250828210156111505761114f6110a2565b5b828203905092915050565b7f4e487b7100000000000000000000000000000000000000000000000000000000600052602260045260246000fd5b600060028204905060018216806111a257607f821691505b6020821081036111b5576111b461115b565b5b50919050565b7f596f75206964696f7420617265206e6f7420746865206f776e65720000000000600082015250565b60006111f1601b83610c9b565b91506111fc826111bb565b602082019050919050565b60006020820190508181036000830152611220816111e4565b905091905056fea2646970667358221220f6eed085eac2f96becc75cc9f0736c3244ff7b73204736ae78e9118c16e74b6664736f6c634300080d0033",
  "immutableReferences": {},
  "source": "// SPDX-License-Identifier: MIT\r\n// compiler version must be greater than or equal to 0.8.20 and less than 0.9.0\r\npragma solidity >=0.4.22 <0.9.0;\r\n\r\ncontract CrowdFunding {\r\n    struct Cause {\r\n        string cause;\r\n        uint256 money;\r\n        uint256 target;\r\n        address person;\r\n        bool ok;\r\n    }\r\n\r\n    mapping(string => Cause) public mp;\r\n    string[] public causes;\r\n\r\n    address public owner;\r\n\r\n    constructor() {\r\n        owner = msg.sender;\r\n    }\r\n\r\n    function createCause(\r\n        string memory cause,\r\n        address dead,\r\n        uint256 target\r\n    ) public {\r\n        require(msg.sender == owner, \"You idiot are not the owner\");\r\n\r\n        Cause memory obj;\r\n\r\n        obj = Cause(cause, 0, target, dead, false);\r\n        causes.push(cause);\r\n\r\n        mp[cause] = obj;\r\n    }\r\n\r\n    function getMoney(string memory _cause, uint256 _money) public payable {\r\n        // uint256 a = mp[_cause].target;\r\n        require(msg.value == _money, \"Send the mentioned amount only\");\r\n        if (mp[_cause].money + _money > mp[_cause].target) {\r\n            uint256 b = mp[_cause].money + _money - mp[_cause].target;\r\n            payable(msg.sender).transfer(b);\r\n            mp[_cause].money = mp[_cause].target;\r\n        } else mp[_cause].money = mp[_cause].money + _money;\r\n\r\n        if (mp[_cause].money == mp[_cause].target) distributeMoney(_cause);\r\n    }\r\n\r\n    function distributeMoney(string memory _cause) public payable {\r\n        payable(mp[_cause].person).transfer(mp[_cause].target);\r\n        mp[_cause].ok = true;\r\n    }\r\n\r\n    function returnCauseNames() public view returns (string[] memory) {\r\n        return causes;\r\n    }\r\n}\r\n",
  "sourcePath": "C:\\Users\\goura\\OneDrive\\Desktop\\blockchain\\crowdfunding\\truffle\\contracts\\CrowdFunding.sol",
  "compiler": {
    "name": "solc",
    "version": "0.8.13+commit.abaa5c0e.Emscripten.clang"
  },
  "schemaVersion": "3.4.5",
  "updatedAt": "2023-10-21T12:24:38.342Z",
  "networkType": "ethereum",
  "devdoc": {
    "kind": "dev",
    "methods": {},
    "version": 1
  },
  "userdoc": {
    "kind": "user",
    "methods": {},
    "version": 1
  }
}